{
  "_format": "ethoko-contract-artifact-v0",
  "id": "dc5dd49bddb9",
  "project": "verified-counter",
  "abi": [
    {
      "type": "function",
      "name": "mul",
      "inputs": [
        {
          "name": "a",
          "type": "uint256",
          "internalType": "uint256"
        },
        {
          "name": "b",
          "type": "uint256",
          "internalType": "uint256"
        }
      ],
      "outputs": [
        {
          "name": "",
          "type": "uint256",
          "internalType": "uint256"
        }
      ],
      "stateMutability": "pure"
    }
  ],
  "linkReferences": {},
  "deployedLinkReferences": {},
  "contractName": "ExternalMath",
  "sourceName": "project/contracts/ExternalMath.sol",
  "evm": {
    "bytecode": {
      "object": "60e0610033600b8282823980515f1a607314602757634e487b7160e01b5f525f60045260245ffd5b305f52607381538281f3fe73000000000000000000000000000000000000000030146080604052600436106032575f3560e01c8063c8a4ac9c146036575b5f5ffd5b604560413660046069565b6057565b60405190815260200160405180910390f35b5f606082846088565b90505b92915050565b5f5f604083850312156079575f5ffd5b50508035926020909101359150565b8082028115828204841417606357634e487b7160e01b5f52601160045260245ffdfea26469706673582212203235150a35a9037d44973b31a607b192f4ad65cda515bb385e08c4679cd7572a64736f6c634300081c0033",
      "opcodes": "PUSH1 0xE0 PUSH2 0x33 PUSH1 0xB DUP3 DUP3 DUP3 CODECOPY DUP1 MLOAD PUSH0 BYTE PUSH1 0x73 EQ PUSH1 0x27 JUMPI PUSH4 0x4E487B71 PUSH1 0xE0 SHL PUSH0 MSTORE PUSH0 PUSH1 0x4 MSTORE PUSH1 0x24 PUSH0 REVERT JUMPDEST ADDRESS PUSH0 MSTORE PUSH1 0x73 DUP2 MSTORE8 DUP3 DUP2 RETURN INVALID PUSH20 0x0 ADDRESS EQ PUSH1 0x80 PUSH1 0x40 MSTORE PUSH1 0x4 CALLDATASIZE LT PUSH1 0x32 JUMPI PUSH0 CALLDATALOAD PUSH1 0xE0 SHR DUP1 PUSH4 0xC8A4AC9C EQ PUSH1 0x36 JUMPI JUMPDEST PUSH0 PUSH0 REVERT JUMPDEST PUSH1 0x45 PUSH1 0x41 CALLDATASIZE PUSH1 0x4 PUSH1 0x69 JUMP JUMPDEST PUSH1 0x57 JUMP JUMPDEST PUSH1 0x40 MLOAD SWAP1 DUP2 MSTORE PUSH1 0x20 ADD PUSH1 0x40 MLOAD DUP1 SWAP2 SUB SWAP1 RETURN JUMPDEST PUSH0 PUSH1 0x60 DUP3 DUP5 PUSH1 0x88 JUMP JUMPDEST SWAP1 POP JUMPDEST SWAP3 SWAP2 POP POP JUMP JUMPDEST PUSH0 PUSH0 PUSH1 0x40 DUP4 DUP6 SUB SLT ISZERO PUSH1 0x79 JUMPI PUSH0 PUSH0 REVERT JUMPDEST POP POP DUP1 CALLDATALOAD SWAP3 PUSH1 0x20 SWAP1 SWAP2 ADD CALLDATALOAD SWAP2 POP JUMP JUMPDEST DUP1 DUP3 MUL DUP2 ISZERO DUP3 DUP3 DIV DUP5 EQ OR PUSH1 0x63 JUMPI PUSH4 0x4E487B71 PUSH1 0xE0 SHL PUSH0 MSTORE PUSH1 0x11 PUSH1 0x4 MSTORE PUSH1 0x24 PUSH0 REVERT INVALID LOG2 PUSH5 0x6970667358 0x22 SLT KECCAK256 ORIGIN CALLDATALOAD ISZERO EXP CALLDATALOAD 0xA9 SUB PUSH30 0x44973B31A607B192F4AD65CDA515BB385E08C4679CD7572A64736F6C6343 STOP ADDMOD SHR STOP CALLER ",
      "linkReferences": {}
    },
    "methodIdentifiers": {
      "mul(uint256,uint256)": "c8a4ac9c"
    }
  }
}