{
  "src/Oracle.sol": {
    "Oracle": {
      "abi": [
        {
          "type": "constructor",
          "inputs": [
            {
              "name": "initialOwner",
              "type": "address",
              "internalType": "address"
            }
          ],
          "stateMutability": "nonpayable"
        },
        {
          "type": "function",
          "name": "by",
          "inputs": [],
          "outputs": [
            {
              "name": "",
              "type": "uint256",
              "internalType": "uint256"
            }
          ],
          "stateMutability": "view"
        },
        {
          "type": "function",
          "name": "owner",
          "inputs": [],
          "outputs": [
            {
              "name": "",
              "type": "address",
              "internalType": "address"
            }
          ],
          "stateMutability": "view"
        },
        {
          "type": "function",
          "name": "renounceOwnership",
          "inputs": [],
          "outputs": [],
          "stateMutability": "nonpayable"
        },
        {
          "type": "function",
          "name": "set",
          "inputs": [
            {
              "name": "_by",
              "type": "uint256",
              "internalType": "uint256"
            }
          ],
          "outputs": [],
          "stateMutability": "nonpayable"
        },
        {
          "type": "function",
          "name": "transferOwnership",
          "inputs": [
            {
              "name": "newOwner",
              "type": "address",
              "internalType": "address"
            }
          ],
          "outputs": [],
          "stateMutability": "nonpayable"
        },
        {
          "type": "event",
          "name": "OwnershipTransferred",
          "inputs": [
            {
              "name": "previousOwner",
              "type": "address",
              "indexed": true,
              "internalType": "address"
            },
            {
              "name": "newOwner",
              "type": "address",
              "indexed": true,
              "internalType": "address"
            }
          ],
          "anonymous": false
        },
        {
          "type": "event",
          "name": "Updated",
          "inputs": [
            {
              "name": "by",
              "type": "uint256",
              "indexed": false,
              "internalType": "uint256"
            }
          ],
          "anonymous": false
        },
        {
          "type": "error",
          "name": "OwnableInvalidOwner",
          "inputs": [
            {
              "name": "owner",
              "type": "address",
              "internalType": "address"
            }
          ]
        },
        {
          "type": "error",
          "name": "OwnableUnauthorizedAccount",
          "inputs": [
            {
              "name": "account",
              "type": "address",
              "internalType": "address"
            }
          ]
        }
      ],
      "userdoc": {},
      "devdoc": {},
      "evm": {
        "bytecode": {
          "object": "608060405234801561000f575f5ffd5b506040516106d73803806106d7833981810160405281019061003191906101d7565b805f73ffffffffffffffffffffffffffffffffffffffff168173ffffffffffffffffffffffffffffffffffffffff16036100a2575f6040517f1e4fbdf70000000000000000000000000000000000000000000000000000000081526004016100999190610211565b60405180910390fd5b6100b1816100b860201b60201c565b505061022a565b5f5f5f9054906101000a900473ffffffffffffffffffffffffffffffffffffffff169050815f5f6101000a81548173ffffffffffffffffffffffffffffffffffffffff021916908373ffffffffffffffffffffffffffffffffffffffff1602179055508173ffffffffffffffffffffffffffffffffffffffff168173ffffffffffffffffffffffffffffffffffffffff167f8be0079c531659141344cd1fd0a4f28419497f9722a3daafe3b4186f6b6457e060405160405180910390a35050565b5f5ffd5b5f73ffffffffffffffffffffffffffffffffffffffff82169050919050565b5f6101a68261017d565b9050919050565b6101b68161019c565b81146101c0575f5ffd5b50565b5f815190506101d1816101ad565b92915050565b5f602082840312156101ec576101eb610179565b5b5f6101f9848285016101c3565b91505092915050565b61020b8161019c565b82525050565b5f6020820190506102245f830184610202565b92915050565b6104a0806102375f395ff3fe608060405234801561000f575f5ffd5b5060043610610055575f3560e01c806360fe47b114610059578063715018a6146100755780637c0001381461007f5780638da5cb5b1461009d578063f2fde38b146100bb575b5f5ffd5b610073600480360381019061006e919061036a565b6100d7565b005b61007d610120565b005b610087610133565b60405161009491906103a4565b60405180910390f35b6100a5610139565b6040516100b291906103fc565b60405180910390f35b6100d560048036038101906100d0919061043f565b610160565b005b6100df6101e4565b806001819055507f208509800c5cb9707f116ef96a1d456499ab9fa3c8edc1cdf381fe5216d5b1738160405161011591906103a4565b60405180910390a150565b6101286101e4565b6101315f61026b565b565b60015481565b5f5f5f9054906101000a900473ffffffffffffffffffffffffffffffffffffffff16905090565b6101686101e4565b5f73ffffffffffffffffffffffffffffffffffffffff168173ffffffffffffffffffffffffffffffffffffffff16036101d8575f6040517f1e4fbdf70000000000000000000000000000000000000000000000000000000081526004016101cf91906103fc565b60405180910390fd5b6101e18161026b565b50565b6101ec61032c565b73ffffffffffffffffffffffffffffffffffffffff1661020a610139565b73ffffffffffffffffffffffffffffffffffffffff16146102695761022d61032c565b6040517f118cdaa700000000000000000000000000000000000000000000000000000000815260040161026091906103fc565b60405180910390fd5b565b5f5f5f9054906101000a900473ffffffffffffffffffffffffffffffffffffffff169050815f5f6101000a81548173ffffffffffffffffffffffffffffffffffffffff021916908373ffffffffffffffffffffffffffffffffffffffff1602179055508173ffffffffffffffffffffffffffffffffffffffff168173ffffffffffffffffffffffffffffffffffffffff167f8be0079c531659141344cd1fd0a4f28419497f9722a3daafe3b4186f6b6457e060405160405180910390a35050565b5f33905090565b5f5ffd5b5f819050919050565b61034981610337565b8114610353575f5ffd5b50565b5f8135905061036481610340565b92915050565b5f6020828403121561037f5761037e610333565b5b5f61038c84828501610356565b91505092915050565b61039e81610337565b82525050565b5f6020820190506103b75f830184610395565b92915050565b5f73ffffffffffffffffffffffffffffffffffffffff82169050919050565b5f6103e6826103bd565b9050919050565b6103f6816103dc565b82525050565b5f60208201905061040f5f8301846103ed565b92915050565b61041e816103dc565b8114610428575f5ffd5b50565b5f8135905061043981610415565b92915050565b5f6020828403121561045457610453610333565b5b5f6104618482850161042b565b9150509291505056fea26469706673582212206650eda1dcb4ede486073464e21394735a83f23a7bd43b3160b070159f1d1a9c64736f6c63430008210033",
          "linkReferences": {}
        },
        "methodIdentifiers": {
          "by()": "7c000138",
          "owner()": "8da5cb5b",
          "renounceOwnership()": "715018a6",
          "set(uint256)": "60fe47b1",
          "transferOwnership(address)": "f2fde38b"
        }
      }
    }
  }
}