{
  "src/ExternalMath.sol": {
    "ExternalMath": {
      "abi": [
        {
          "type": "function",
          "name": "mul",
          "inputs": [
            {
              "name": "a",
              "type": "uint256",
              "internalType": "uint256"
            },
            {
              "name": "b",
              "type": "uint256",
              "internalType": "uint256"
            }
          ],
          "outputs": [
            {
              "name": "",
              "type": "uint256",
              "internalType": "uint256"
            }
          ],
          "stateMutability": "pure"
        }
      ],
      "userdoc": {},
      "devdoc": {},
      "evm": {
        "bytecode": {
          "object": "6101be61004d600b8282823980515f1a6073146041577f4e487b71000000000000000000000000000000000000000000000000000000005f525f60045260245ffd5b305f52607381538281f3fe7300000000000000000000000000000000000000003014608060405260043610610034575f3560e01c8063c8a4ac9c14610038575b5f5ffd5b610052600480360381019061004d91906100b4565b610068565b60405161005f9190610101565b60405180910390f35b5f81836100759190610147565b905092915050565b5f5ffd5b5f819050919050565b61009381610081565b811461009d575f5ffd5b50565b5f813590506100ae8161008a565b92915050565b5f5f604083850312156100ca576100c961007d565b5b5f6100d7858286016100a0565b92505060206100e8858286016100a0565b9150509250929050565b6100fb81610081565b82525050565b5f6020820190506101145f8301846100f2565b92915050565b7f4e487b71000000000000000000000000000000000000000000000000000000005f52601160045260245ffd5b5f61015182610081565b915061015c83610081565b925082820261016a81610081565b915082820484148315176101815761018061011a565b5b509291505056fea2646970667358221220819f8fd058ef22c1d3e7ff30ed8683be5165c0a5286e670802d273713b5a15a364736f6c63430008210033",
          "linkReferences": {}
        },
        "methodIdentifiers": {
          "mul(uint256,uint256)": "c8a4ac9c"
        }
      }
    }
  }
}