{
  "src/Counter.sol": {
    "Counter": {
      "abi": [
        {
          "type": "constructor",
          "inputs": [
            {
              "name": "_oracle",
              "type": "address",
              "internalType": "contract Oracle"
            }
          ],
          "stateMutability": "nonpayable"
        },
        {
          "type": "function",
          "name": "inc",
          "inputs": [],
          "outputs": [],
          "stateMutability": "nonpayable"
        },
        {
          "type": "function",
          "name": "mul",
          "inputs": [],
          "outputs": [],
          "stateMutability": "nonpayable"
        },
        {
          "type": "function",
          "name": "oracle",
          "inputs": [],
          "outputs": [
            {
              "name": "",
              "type": "address",
              "internalType": "contract Oracle"
            }
          ],
          "stateMutability": "view"
        },
        {
          "type": "function",
          "name": "x",
          "inputs": [],
          "outputs": [
            {
              "name": "",
              "type": "uint256",
              "internalType": "uint256"
            }
          ],
          "stateMutability": "view"
        },
        {
          "type": "event",
          "name": "Increment",
          "inputs": [
            {
              "name": "by",
              "type": "uint256",
              "indexed": false,
              "internalType": "uint256"
            }
          ],
          "anonymous": false
        },
        {
          "type": "event",
          "name": "Multiply",
          "inputs": [
            {
              "name": "by",
              "type": "uint256",
              "indexed": false,
              "internalType": "uint256"
            }
          ],
          "anonymous": false
        }
      ],
      "userdoc": {},
      "devdoc": {},
      "evm": {
        "bytecode": {
          "object": "608060405234801561000f575f5ffd5b50604051610613380380610613833981810160405281019061003191906100e6565b8060015f6101000a81548173ffffffffffffffffffffffffffffffffffffffff021916908373ffffffffffffffffffffffffffffffffffffffff16021790555050610111565b5f5ffd5b5f73ffffffffffffffffffffffffffffffffffffffff82169050919050565b5f6100a48261007b565b9050919050565b5f6100b58261009a565b9050919050565b6100c5816100ab565b81146100cf575f5ffd5b50565b5f815190506100e0816100bc565b92915050565b5f602082840312156100fb576100fa610077565b5b5f610108848285016100d2565b91505092915050565b6104f58061011e5f395ff3fe608060405234801561000f575f5ffd5b506004361061004a575f3560e01c80630c55699c1461004e578063371303c01461006c57806358931c46146100765780637dc0d1d014610080575b5f5ffd5b61005661009e565b6040516100639190610324565b60405180910390f35b6100746100a3565b005b61007e610187565b005b6100886102d2565b60405161009591906103b7565b60405180910390f35b5f5481565b5f60015f9054906101000a900473ffffffffffffffffffffffffffffffffffffffff1673ffffffffffffffffffffffffffffffffffffffff16637c0001386040518163ffffffff1660e01b8152600401602060405180830381865afa15801561010e573d5f5f3e3d5ffd5b505050506040513d601f19601f8201168201806040525081019061013291906103fe565b9050610148815f546102f790919063ffffffff16565b5f819055507f51af157c2eee40f68107a47a49c32fbbeb0a3c9e5cd37aa56e88e6be92368a818160405161017c9190610324565b60405180910390a150565b5f60015f9054906101000a900473ffffffffffffffffffffffffffffffffffffffff1673ffffffffffffffffffffffffffffffffffffffff16637c0001386040518163ffffffff1660e01b8152600401602060405180830381865afa1580156101f2573d5f5f3e3d5ffd5b505050506040513d601f19601f8201168201806040525081019061021691906103fe565b90505f5473__$5dd90c61c8927ece6bd23496dbbf4e2e87$__63c8a4ac9c9091836040518363ffffffff1660e01b8152600401610254929190610438565b602060405180830381865af415801561026f573d5f5f3e3d5ffd5b505050506040513d601f19601f8201168201806040525081019061029391906103fe565b5f819055507fcba0fc42cfd14131f8cbd3aeb2d0cd5199ccda147ae0506fbc883c61bc964ad7816040516102c79190610324565b60405180910390a150565b60015f9054906101000a900473ffffffffffffffffffffffffffffffffffffffff1681565b5f8183610304919061048c565b905092915050565b5f819050919050565b61031e8161030c565b82525050565b5f6020820190506103375f830184610315565b92915050565b5f73ffffffffffffffffffffffffffffffffffffffff82169050919050565b5f819050919050565b5f61037f61037a6103758461033d565b61035c565b61033d565b9050919050565b5f61039082610365565b9050919050565b5f6103a182610386565b9050919050565b6103b181610397565b82525050565b5f6020820190506103ca5f8301846103a8565b92915050565b5f5ffd5b6103dd8161030c565b81146103e7575f5ffd5b50565b5f815190506103f8816103d4565b92915050565b5f60208284031215610413576104126103d0565b5b5f610420848285016103ea565b91505092915050565b6104328161030c565b82525050565b5f60408201905061044b5f830185610429565b6104586020830184610429565b9392505050565b7f4e487b71000000000000000000000000000000000000000000000000000000005f52601160045260245ffd5b5f6104968261030c565b91506104a18361030c565b92508282019050808211156104b9576104b861045f565b5b9291505056fea26469706673582212208719fef425391b2178d19e6d4db4558c457110dcfc9e13fed5610835e0f044df64736f6c63430008210033",
          "linkReferences": {
            "src/ExternalMath.sol": {
              "ExternalMath": [
                {
                  "start": 826,
                  "length": 20
                }
              ]
            }
          }
        },
        "methodIdentifiers": {
          "inc()": "371303c0",
          "mul()": "58931c46",
          "oracle()": "7dc0d1d0",
          "x()": "0c55699c"
        }
      }
    }
  }
}