{
  "address": "0x8f48fffc6fe6032063a8acae5cb9188ebb01d57a",
  "abi": [
    {
      "type": "event",
      "name": "Increment",
      "inputs": [
        {
          "name": "by",
          "type": "uint256",
          "internalType": "uint256",
          "indexed": false
        }
      ],
      "anonymous": false
    },
    {
      "type": "function",
      "name": "inc",
      "inputs": [],
      "outputs": [],
      "stateMutability": "nonpayable"
    },
    {
      "type": "function",
      "name": "incBy",
      "inputs": [
        {
          "name": "by",
          "type": "uint256",
          "internalType": "uint256"
        }
      ],
      "outputs": [],
      "stateMutability": "nonpayable"
    },
    {
      "type": "function",
      "name": "x",
      "inputs": [],
      "outputs": [
        {
          "name": "",
          "type": "uint256",
          "internalType": "uint256"
        }
      ],
      "stateMutability": "view"
    }
  ],
  "bytecode": "0x6080604052348015600e575f5ffd5b506101ff8061001c5f395ff3fe608060405234801561000f575f5ffd5b506004361061003f575f3560e01c80630c55699c14610043578063371303c01461005d57806370119d0614610067575b5f5ffd5b61004b5f5481565b60405190815260200160405180910390f35b61006561007a565b005b61006561007536600461016d565b6100c3565b5f8054908061008883610198565b9091555050604051600181527f51af157c2eee40f68107a47a49c32fbbeb0a3c9e5cd37aa56e88e6be92368a819060200160405180910390a1565b5f81116101225760405162461bcd60e51b815260206004820152602360248201527f696e6342793a20696e6372656d656e742073686f756c6420626520706f73697460448201526269766560e81b606482015260840160405180910390fd5b805f5f82825461013291906101b0565b90915550506040518181527f51af157c2eee40f68107a47a49c32fbbeb0a3c9e5cd37aa56e88e6be92368a819060200160405180910390a150565b5f6020828403121561017d575f5ffd5b5035919050565b634e487b7160e01b5f52601160045260245ffd5b5f600182016101a9576101a9610184565b5060010190565b808201808211156101c3576101c3610184565b9291505056fea264697066735822122029473277b756e11e854117a50e1cccaa04c57b44379c0281aaae5a0f73d4774b64736f6c634300081c0033",
  "linkReferences": {},
  "deployedLinkReferences": {},
  "contractName": "Counter",
  "sourceName": "project/contracts/Counter.sol",
  "devdoc": {
    "kind": "dev",
    "methods": {},
    "version": 1
  },
  "evm": {
    "gasEstimates": {
      "creation": {
        "codeDepositCost": "102200",
        "executionCost": "145",
        "totalCost": "102345"
      },
      "external": {
        "inc()": "25484",
        "incBy(uint256)": "25620",
        "x()": "2259"
      }
    }
  },
  "storageLayout": {
    "storage": [
      {
        "astId": 3,
        "contract": "project/contracts/Counter.sol:Counter",
        "label": "x",
        "offset": 0,
        "slot": "0",
        "type": "t_uint256"
      }
    ],
    "types": {
      "t_uint256": {
        "encoding": "inplace",
        "label": "uint256",
        "numberOfBytes": "32"
      }
    }
  },
  "userdoc": {
    "kind": "user",
    "methods": {},
    "version": 1
  },
  "argsData": "0x",
  "transaction": {
    "hash": "0x1da30d68c40fad765fefdc8d65e9b061d3b60c82746a60ad3ced06b3a26c8758",
    "nonce": "0x27",
    "origin": "0x25371b936fd45e67f00dfea1cd6a3e77105dd0fa"
  }
}