{
  "address": "0xd12bee1c01fbd5ece35fa058d0c604d5751326b3",
  "abi": [
    {
      "type": "function",
      "name": "counter",
      "inputs": [],
      "outputs": [
        {
          "name": "",
          "type": "uint256",
          "internalType": "uint256"
        }
      ],
      "stateMutability": "view"
    },
    {
      "type": "function",
      "name": "increment",
      "inputs": [],
      "outputs": [],
      "stateMutability": "nonpayable"
    }
  ],
  "bytecode": "0x6080604052348015600e575f5ffd5b5060c580601a5f395ff3fe6080604052348015600e575f5ffd5b50600436106030575f3560e01c806361bc221a146034578063d09de08a14604d575b5f5ffd5b603b5f5481565b60405190815260200160405180910390f35b60536055565b005b60015f5f82825460649190606b565b9091555050565b80820180821115608957634e487b7160e01b5f52601160045260245ffd5b9291505056fea2646970667358221220287fa665cdd47beeb40b58ad78e66e8ada19579d99134bef6f8fe9e5c0ef63b864736f6c634300081c0033",
  "linkReferences": {},
  "deployedLinkReferences": {},
  "contractName": "Counter",
  "sourceName": "project/contracts/Counter.sol",
  "devdoc": {
    "kind": "dev",
    "methods": {},
    "version": 1
  },
  "evm": {
    "gasEstimates": {
      "creation": {
        "codeDepositCost": "39400",
        "executionCost": "91",
        "totalCost": "39491"
      },
      "external": {
        "counter()": "2259",
        "increment()": "24441"
      }
    }
  },
  "storageLayout": {
    "storage": [
      {
        "astId": 3,
        "contract": "project/contracts/Counter.sol:Counter",
        "label": "counter",
        "offset": 0,
        "slot": "0",
        "type": "t_uint256"
      }
    ],
    "types": {
      "t_uint256": {
        "encoding": "inplace",
        "label": "uint256",
        "numberOfBytes": "32"
      }
    }
  },
  "userdoc": {
    "kind": "user",
    "methods": {},
    "version": 1
  },
  "argsData": "0x",
  "transaction": {
    "hash": "0x286cb459f504db1bc4010d05250b3c0a49b3c0812acfd75991f311014f8edda5",
    "nonce": "0x45",
    "origin": "0x25371b936fd45e67f00dfea1cd6a3e77105dd0fa"
  }
}