{
  "_format": "hh-sol-artifact-1",
  "contractName": "Counter",
  "sourceName": "src/Counter.sol",
  "abi": [
    {
      "inputs": [],
      "name": "counter",
      "outputs": [
        {
          "internalType": "uint256",
          "name": "",
          "type": "uint256"
        }
      ],
      "stateMutability": "view",
      "type": "function"
    },
    {
      "inputs": [],
      "name": "increment",
      "outputs": [],
      "stateMutability": "nonpayable",
      "type": "function"
    }
  ],
  "bytecode": "0x6080604052348015600f57600080fd5b5060cc80601d6000396000f3fe6080604052348015600f57600080fd5b506004361060325760003560e01c806361bc221a146037578063d09de08a146051575b600080fd5b603f60005481565b60405190815260200160405180910390f35b60576059565b005b6001600080828254606991906070565b9091555050565b80820180821115609057634e487b7160e01b600052601160045260246000fd5b9291505056fea2646970667358221220156851731a9e43c83380e51495d302d20e4f212cee4a5dcefb210809e9158f8164736f6c634300081c0033",
  "linkReferences": {},
  "deployedLinkReferences": {}
}