{
  "_format": "hh3-artifact-1",
  "contractName": "Oracle",
  "sourceName": "contracts/Oracle.sol",
  "abi": [
    {
      "inputs": [
        {
          "internalType": "address",
          "name": "initialOwner",
          "type": "address"
        }
      ],
      "stateMutability": "nonpayable",
      "type": "constructor"
    },
    {
      "inputs": [
        {
          "internalType": "address",
          "name": "owner",
          "type": "address"
        }
      ],
      "name": "OwnableInvalidOwner",
      "type": "error"
    },
    {
      "inputs": [
        {
          "internalType": "address",
          "name": "account",
          "type": "address"
        }
      ],
      "name": "OwnableUnauthorizedAccount",
      "type": "error"
    },
    {
      "anonymous": false,
      "inputs": [
        {
          "indexed": true,
          "internalType": "address",
          "name": "previousOwner",
          "type": "address"
        },
        {
          "indexed": true,
          "internalType": "address",
          "name": "newOwner",
          "type": "address"
        }
      ],
      "name": "OwnershipTransferred",
      "type": "event"
    },
    {
      "anonymous": false,
      "inputs": [
        {
          "indexed": false,
          "internalType": "uint256",
          "name": "by",
          "type": "uint256"
        }
      ],
      "name": "Updated",
      "type": "event"
    },
    {
      "inputs": [],
      "name": "by",
      "outputs": [
        {
          "internalType": "uint256",
          "name": "",
          "type": "uint256"
        }
      ],
      "stateMutability": "view",
      "type": "function"
    },
    {
      "inputs": [],
      "name": "owner",
      "outputs": [
        {
          "internalType": "address",
          "name": "",
          "type": "address"
        }
      ],
      "stateMutability": "view",
      "type": "function"
    },
    {
      "inputs": [],
      "name": "renounceOwnership",
      "outputs": [],
      "stateMutability": "nonpayable",
      "type": "function"
    },
    {
      "inputs": [
        {
          "internalType": "uint256",
          "name": "_by",
          "type": "uint256"
        }
      ],
      "name": "set",
      "outputs": [],
      "stateMutability": "nonpayable",
      "type": "function"
    },
    {
      "inputs": [
        {
          "internalType": "address",
          "name": "newOwner",
          "type": "address"
        }
      ],
      "name": "transferOwnership",
      "outputs": [],
      "stateMutability": "nonpayable",
      "type": "function"
    }
  ],
  "bytecode": "0x6080604052348015600e575f5ffd5b50604051610338380380610338833981016040819052602b9160b4565b806001600160a01b038116605857604051631e4fbdf760e01b81525f600482015260240160405180910390fd5b605f816065565b505060df565b5f80546001600160a01b038381166001600160a01b0319831681178455604051919092169283917f8be0079c531659141344cd1fd0a4f28419497f9722a3daafe3b4186f6b6457e09190a35050565b5f6020828403121560c3575f5ffd5b81516001600160a01b038116811460d8575f5ffd5b9392505050565b61024c806100ec5f395ff3fe608060405234801561000f575f5ffd5b5060043610610055575f3560e01c806360fe47b114610059578063715018a61461006e5780637c000138146100765780638da5cb5b14610092578063f2fde38b146100ac575b5f5ffd5b61006c6100673660046101d2565b6100bf565b005b61006c610102565b61007f60015481565b6040519081526020015b60405180910390f35b5f546040516001600160a01b039091168152602001610089565b61006c6100ba3660046101e9565b610115565b6100c7610157565b60018190556040518181527f208509800c5cb9707f116ef96a1d456499ab9fa3c8edc1cdf381fe5216d5b1739060200160405180910390a150565b61010a610157565b6101135f610183565b565b61011d610157565b6001600160a01b03811661014b57604051631e4fbdf760e01b81525f60048201526024015b60405180910390fd5b61015481610183565b50565b5f546001600160a01b031633146101135760405163118cdaa760e01b8152336004820152602401610142565b5f80546001600160a01b038381166001600160a01b0319831681178455604051919092169283917f8be0079c531659141344cd1fd0a4f28419497f9722a3daafe3b4186f6b6457e09190a35050565b5f602082840312156101e2575f5ffd5b5035919050565b5f602082840312156101f9575f5ffd5b81356001600160a01b038116811461020f575f5ffd5b939250505056fea26469706673582212202e2d078bc985286abd33b71e8c0ca2f5e191bffa2014a483ff7a3d183b8558ce64736f6c634300081c0033",
  "linkReferences": {},
  "deployedLinkReferences": {},
  "immutableReferences": {},
  "inputSourceName": "project/contracts/Oracle.sol",
  "buildInfoId": "solc-0_8_28-817f4fe5756a24b7504aef5aac4d207a8a0da81e"
}