{"src/Counter.sol":{"Counter":{"abi":[{"inputs":[],"name":"counter","outputs":[{"internalType":"uint256","name":"","type":"uint256"}],"stateMutability":"view","type":"function"},{"inputs":[],"name":"increment","outputs":[],"stateMutability":"nonpayable","type":"function"},{"inputs":[],"name":"incrementAmount","outputs":[{"internalType":"uint256","name":"","type":"uint256"}],"stateMutability":"view","type":"function"}],"devdoc":{"kind":"dev","methods":{},"version":1},"evm":{"bytecode":{"linkReferences":{},"object":"608060405260018055348015601357600080fd5b50610101806100236000396000f3fe6080604052348015600f57600080fd5b5060043610603c5760003560e01c806361bc221a146041578063a4a049dd14605b578063d09de08a146063575b600080fd5b604960005481565b60405190815260200160405180910390f35b604960015481565b6069606b565b005b6001805460769160a1565b6000808282546084919060bb565b9091555050565b634e487b7160e01b600052601160045260246000fd5b808202811582820484141760b55760b5608b565b92915050565b8082018082111560b55760b5608b56fea26469706673582212201b3d830575634296d33109e9114699fa425010abe7db48e5ae53dcb4bdb47d1364736f6c634300081c0033","opcodes":"PUSH1 0x80 PUSH1 0x40 MSTORE PUSH1 0x1 DUP1 SSTORE CALLVALUE DUP1 ISZERO PUSH1 0x13 JUMPI PUSH1 0x0 DUP1 REVERT JUMPDEST POP PUSH2 0x101 DUP1 PUSH2 0x23 PUSH1 0x0 CODECOPY PUSH1 0x0 RETURN INVALID PUSH1 0x80 PUSH1 0x40 MSTORE CALLVALUE DUP1 ISZERO PUSH1 0xF JUMPI PUSH1 0x0 DUP1 REVERT JUMPDEST POP PUSH1 0x4 CALLDATASIZE LT PUSH1 0x3C JUMPI PUSH1 0x0 CALLDATALOAD PUSH1 0xE0 SHR DUP1 PUSH4 0x61BC221A EQ PUSH1 0x41 JUMPI DUP1 PUSH4 0xA4A049DD EQ PUSH1 0x5B JUMPI DUP1 PUSH4 0xD09DE08A EQ PUSH1 0x63 JUMPI JUMPDEST PUSH1 0x0 DUP1 REVERT JUMPDEST PUSH1 0x49 PUSH1 0x0 SLOAD DUP2 JUMP JUMPDEST PUSH1 0x40 MLOAD SWAP1 DUP2 MSTORE PUSH1 0x20 ADD PUSH1 0x40 MLOAD DUP1 SWAP2 SUB SWAP1 RETURN JUMPDEST PUSH1 0x49 PUSH1 0x1 SLOAD DUP2 JUMP JUMPDEST PUSH1 0x69 PUSH1 0x6B JUMP JUMPDEST STOP JUMPDEST PUSH1 0x1 DUP1 SLOAD PUSH1 0x76 SWAP2 PUSH1 0xA1 JUMP JUMPDEST PUSH1 0x0 DUP1 DUP3 DUP3 SLOAD PUSH1 0x84 SWAP2 SWAP1 PUSH1 0xBB JUMP JUMPDEST SWAP1 SWAP2 SSTORE POP POP JUMP JUMPDEST PUSH4 0x4E487B71 PUSH1 0xE0 SHL PUSH1 0x0 MSTORE PUSH1 0x11 PUSH1 0x4 MSTORE PUSH1 0x24 PUSH1 0x0 REVERT JUMPDEST DUP1 DUP3 MUL DUP2 ISZERO DUP3 DUP3 DIV DUP5 EQ OR PUSH1 0xB5 JUMPI PUSH1 0xB5 PUSH1 0x8B JUMP JUMPDEST SWAP3 SWAP2 POP POP JUMP JUMPDEST DUP1 DUP3 ADD DUP1 DUP3 GT ISZERO PUSH1 0xB5 JUMPI PUSH1 0xB5 PUSH1 0x8B JUMP INVALID LOG2 PUSH5 0x6970667358 0x22 SLT KECCAK256 SHL RETURNDATASIZE DUP4 SDIV PUSH22 0x634296D33109E9114699FA425010ABE7DB48E5AE53DC 0xB4 0xBD 0xB4 PUSH30 0x1364736F6C634300081C0033000000000000000000000000000000000000 "},"gasEstimates":{"creation":{"codeDepositCost":"51400","executionCost":"22211","totalCost":"73611"},"external":{"counter()":"2261","increment()":"infinite","incrementAmount()":"2283"}},"methodIdentifiers":{"counter()":"61bc221a","increment()":"d09de08a","incrementAmount()":"a4a049dd"}},"storageLayout":{"storage":[{"astId":3,"contract":"src/Counter.sol:Counter","label":"counter","offset":0,"slot":"0","type":"t_uint256"},{"astId":6,"contract":"src/Counter.sol:Counter","label":"incrementAmount","offset":0,"slot":"1","type":"t_uint256"}],"types":{"t_uint256":{"encoding":"inplace","label":"uint256","numberOfBytes":"32"}}},"userdoc":{"kind":"user","methods":{},"version":1}}}}